:0200000460009A
:100000004643464200000156000000000103030081
:1000100000000000000000000000000000000000E0
:1000200000000000000000000000000000000000D0
:1000300000000000000000000000000000000000C0
:1000400000000000010408000000000000000000A3
:100050000000800000000000000000000000000020
:100060000000000000000000000000000000000090
:100070000000000000000000000000000000000080
:10008000EB04180A063204260000000000000000FD
:10009000050404240000000000000000000000002F
:1000A0000000000000000000000000000000000050
:1000B0000604000000000000000000000000000036
:1000C0000000000000000000000000000000000030
:1000D00020041808000000000000000000000000DC
:1000E0000000000000000000000000000000000010
:1000F0000000000000000000000000000000000000
:10010000D8041808000000000000000000000000F3
:100110000204180804200000000000000000000095
:1001200000000000000000000000000000000000CF
:10013000600400000000000000000000000000005B
:1001400000000000000000000000000000000000AF
:10015000000000000000000000000000000000009F
:10016000000000000000000000000000000000008F
:10017000000000000000000000000000000000007F
:10018000000000000000000000000000000000006F
:10019000000000000000000000000000000000005F
:1001A000000000000000000000000000000000004F
:1001B000000000000000000000000000000000003F
:1001C000000100000010000001000000000000001D
:1001D000000001000000000000000000000000001E
:1001E000000000000000000000000000000000000F
:1001F00000000000000000000000000000000000FF
:10020000FFFFFFFFFFFFFFFFFFFFFFFFFFFFFFFFFE
:10021000FFFFFFFFFFFFFFFFFFFFFFFFFFFFFFFFEE
:10100000D100204325160060000000000000000011
:1010100020100060001000600074016000000000FB
:10102000000000600080010000000000FFFFFFFFE3
:10103000FFFFFFFFFFFFFFFFFFFFFFFFFFFFFFFFC0
:10104000FFFFFFFFFFFFFFFFFFFFFFFFFFFFFFFFB0
:10105000FFFFFFFFFFFFFFFFFFFFFFFFFFFFFFFFA0
:10106000FFFFFFFFFFFFFFFFFFFFFFFFFFFFFFFF90
:10140000884207D0904205D251F8043B40F8043B93
:101410008242F9D8704700BF884204D2002340F8C6
:10142000043B8142FBD870472DE9884800F03CF925
:101430000824614B614AC3F8544161496148FFF790
:10144000DFFF614A61496248FFF7DAFF614962489C
:10145000FFF7E2FF614C4FF0E0214FF470000023F2
:101460005F4AC1F8880D44F823200133B02BFAD12C
:101470005C4B80215C4A03F8011B9342FBD14FF087
:10148000E0254D4E4FF08039DFF88CB1DFF88CA1AC
:101490004FF0FF31C5F8084D0027C6F80491C6F893
:1014A00000B1C6F8F490C6F8F0A0D5F8243DDFF8F6
:1014B000708143F4E0234D4AC5F8243DD8F81C3030
:1014C00023F07F0343F04003C8F81C30D8F82430E1
:1014D00023F07F0343F04003C8F824309166D166BF
:1014E0001167516700F0E8F8414B4249A363424B52
:1014F000E36363236B610323AF612B613F4BC5F84B
:10150000203DD5F8FC3D43F08073C5F8FC3D3C4BD5
:101510001A6842F001021A605B680B6000F00AFB77
:10152000C6F804913748C6F800B1C6F8F490C6F87A
:10153000F0A000F07DFCD8F86C10334B334A41F436
:101540004051C8F86C101F60C3F80871C3F81871D7
:10155000C3F82871C3F83871936BDB0708D442F6DF
:1015600015632B4951651365936B43F00103936336
:10157000264A284C936843F00113936000F018F951
:1015800000F068F800F040FC00F002FB00F08EF87C
:101590002368132BFCD900F093FB2368B3F5967FE7
:1015A000FBD300F087F800F083F800F03DFC00F07A
:1015B00043FC30BFFDE700BF00800D40582E010006
:1015C000641F006000000000C0220020C04D0160C8
:1015D0000000002000330020C02200200020002056
:1015E000297D000000E400E0A0E400E000C00A4023
:1015F000E99100009C320020ED91000000002020C5
:10160000001000E00046C3230040084000400D40A9
:101610000000C056A03200201B1018200C0D111322
:1016200000C00F40074B4FF42A01074A07485A648D
:101630001864074A99639546BFF34F8FBFF36F8FC6
:10164000FFF7F2FE00C00A40BFAAAAAA07002000C6
:1016500000800620104BA020104AD96E41F4403182
:1016600010B4D96640F23764D96E41F44071D9663E
:1016700054649064936C1B06FCD4094A40F23761B1
:10168000A02351649364936C13F08003FBD1054A4B
:1016900013705DF8044B704700C00F4000400C40D1
:1016A00000800C40CC320020704700BF704700BF64
:1016B000704700BF00BF704710B44FF0E023002117
:1016C00010242B48C3F8941DC3F89C4D1124C3F873
:1016D000A00D2848C3F89C4D1224C3F8A00D26483D
:1016E000C3F89C4D254AC3F8A00D254C42F01502C5
:1016F0002448C3F89C4DC3F8A00D234C2348C3F8DD
:101700009C4DC3F8A00D224CC3F89C2D2148224AC1
:10171000C3F8A04DC3F89C0DC3F8A02D02F5A0227C
:101720001E4C0C321E48C3F89C4DC3F8A02D1D4A18
:10173000C3F89C0D1C4CC3F8A02D01221B48C3F814
:101740009C4DC3F8A00DC3F8942DBFF34F8FBFF38A
:101750006F8FC3F8501FBFF34F8FBFF36F8FD3F856
:10176000142D5DF8044B42F44032C3F8142D704739
:101770003F0000102500080309001000003300207E
:101780001300200021000207140000202500081388
:10179000090000101600202027000B13170000403E
:1017A000180000602F000B07190000702F000B13AA
:1017B000F0B5B84B1822B84E0120B84F83B0C3F82B
:1017C0005C62B749C3F86072B64DC3F86462A6F5AF
:1017D0003046B54CC3F86862C3F86C52C3F8705217
:1017E000C3F87452C3F8785248F20C75DA661A6777
:1017F0005A679A67DA67C3F88020C3F88420C3F871
:101800008820C1F82C03A94AC1F83003C1F8340379
:10181000C1F83803C1F83C03C1F85003A169A44BD7
:101820000A40A448A4491343A44AA361D4F88430CD
:1018300043F00C03C4F884304FF0FF34036843F0E6
:101840000203036003682B404FF400551A439C4B7E
:10185000026044608A689B4C13409B4A43F00053EB
:101860008360C36823F07803C360036A1340234393
:101870000362036A1340954A2343954C4362826294
:10188000C2620022D1F8B83023F03F0343F00103D5
:10189000C0F8B830D1F8BC308E4923F03F0343F094
:1018A0000103C0F8BC3040F20563026105660467BD
:1018B000C0F88030456644670224C0F8843003686D
:1018C00023F0020303608161834B8449C46143F8C0
:1018D000042B8B42FBD1774A136843F0010313605A
:1018E000136813F00103FBD17A48022140F2F5643A
:1018F000906140F29940D16140F26641C2F80042E5
:1019000042F20144C2F810127549C2F82002C2F82E
:10191000301240F235417348C2F83442C2F84012E6
:10192000714CC2F8500242F201207049C2F85412C0
:101930000121C2F86042C2F864025E48C2F8A030D9
:10194000C2F8A430C2F8B0104369DA07FCD501230D
:1019500000244FF4803257494361C0F8A040C0F8DA
:10196000A420C0F8B0304B69DB07FCD5012300246C
:101970004FF400304F4A4B61C1F8A040C1F8A400B9
:10198000C1F8B0305369DF07FCD501230024584863
:1019900048495361C2F8A040C2F8A400C2F8B03070
:1019A0004B69DE07FCD5D1F8003145F60D522120F8
:1019B0009BB24861934265D100244FF480220123F9
:1019C0003C48C1F8A040C1F8A420C1F8B030436938
:1019D000DD07FCD501234FF400040021354A4361A3
:1019E000C0F8A040C0F8A410C0F8B0305369DC07BC
:1019F000FCD501234FF400044FF480302D4953618E
:101A0000C2F8A040C2F8A400C2F8B0304B69D807B1
:101A1000FCD501234FF400044FF40030254A4B61FC
:101A2000C1F8A040C1F8A400C1F8B0305369D9078B
:101A3000FCD501234FF400042D481E495361C2F820
:101A4000A040C2F8A400C2F8B0304B69DA07FCD558
:101A5000D1F8003145F60D5221209BB248619342E6
:101A600050D008254FF4000422490020224B234A7D
:101A7000009015705A1A01232148224400F0C8F939
:101A800003B0F0BD1E4B0022C3E90022C3E90222CD
:101A900003B0F0BD00801F40F9B00100F910010053
:101AA00000841F40F970010000C00F40FFFCFF1FC1
:101AB000000300A000402A4000802A401200FFFFDF
:101AC000FF37F7004000008000FFF07CFF000F832D
:101AD00063000200F05AF05A00422A4000432A40B4
:101AE0009F041830EB06180A3806180A0632012639
:101AF000040003000000007000000070CD320020E0
:101B00001C3200204FF400044FF4802201230848C7
:101B1000C1F8A040C1F8A420C1F8B0304369DB0788
:101B2000FCD5012310254FF0807443619CE700BF72
:101B300000402A40F0B4154A40274FF480314FF45A
:101B400080564FF400554FF4404443F2420013696D
:101B500013F0020F0ED113F4005F0FD013F4805F67
:101B60000ED0002BF3DA13F4803F0BD15B060BD5BC
:101B7000F0BC7047946151619061E8E75561E6E718
:101B80005661E4E79161E2E75761E0E700800D40CC
:101B90003F4A03203F49F3EE095AD2F880304FF014
:101BA000000C9FED3D6A23F001039FED3C5A30B4D9
:101BB000C2F88030C2F89000D1F8E010384DCBB2B6
:101BC000384C39482B6007EE903A0B0DC1F30B21CE
:101BD000F8EEE77A06EE903A07EE101A334BB8EEBD
:101BE000C77A2160F8EEE66A314937EEC66A37EE09
:101BF000C55A76EEC76A77EEE57A26EE266AC3ED19
:101C0000006A25EE265AD2F8803067EEA64AC0ED6B
:101C1000007AC6EE275A274885EE276AC4EEA76ADF
:101C200075EE875AFCEEE55A36EE076A15EE904AD5
:101C3000BCEEC66A43EA045376EE877AC2F8803077
:101C400016EE103AD2F89041FCEEE77A01EA034131
:101C5000214317EE903AC2F89011C3F30B03D2F868
:101C600090110B431449C2F89031D2F8803043F000
:101C70000203C2F88030114B80F840C0C1F84031F7
:101C80004FF0E023012230BCC3F80821704700BFA9
:101C900000810D4000441F400000AA420000B442F1
:101CA00088320020843200208C32002090320020C4
:101CB0000000FF0F00E400E000200020097F00008A
:101CC000314B40F6617210B5C3F8202140F2044454
:101CD00000F0B6F82D4A2E49D2F880302D4843F056
:101CE0000303C2F880302C4BC1F8604102681A42ED
:101CF00003D1D1F8A8319A071BD0254A4FF00041F3
:101D0000244B5963D2F8403143F00203C2F840310A
:101D1000D2F840319B07FBD44FF400304FF0E02164
:101D20001C4B4FF00042C1F88C0219209A6300F05E
:101D300073F8184A4FF08040154C002190630A2038
:101D4000164B11604FF42072C4F8A801184600F039
:101D500067F84FF4800203464FF4810040F24311CC
:101D60001860C4F858311A640D4B0E4AC4F8481173
:101D7000C3F804224FF0E0224FF400310123C2F8EF
:101D80000C11C4F8403110BD00800D4000C00F4060
:101D900000002E4000900D40001C1E00000000209E
:101DA00000200020F180000008B50E4B1B6E9B0741
:101DB00000D4FBBE72B60C4B00200C4AC3F84001A5
:101DC00003F160430A49A3F55F2311649D46BFF305
:101DD0004F8F4FF400130748074ADB6902609B6886
:101DE000984700BF00441F4000002E4000C00A403A
:101DF0000300200000802020000012EBF8B500BF97
:101E0000F8BC08BC9E4670475FF800F0117C0000EB
:101E10005FF800F05D9200005FF800F001780000CC
:101E20005FF800F019D800005FF800F091DA0000C8
:101E30005FF800F0117500005FF800F0E579000030
:101E40005FF800F0618800004500000065150000A3
:081E5000916A000079C800004E
:101E5800160355005300420020005300650072002D
:101E6800690061006C0000001803540065006500FB
:101E78006E00730079006400750069006E006F00E1
:101E88000403090409026200030100C032080B00C0
:101E980002020201000904000001020201000524F7
:101EA800001001052401010104240206052406008E
:101EB800010705820310001009040100020A00004E
:101EC80000070503024000000705840240000009DE
:101ED80004020002FF6AFF000705810240000107B3
:101EE800050102400001000009026200030100C070
:101EF80032080B000202020100090400000102027C
:101F08000100052400100105240101010424020632
:101F180005240600010705820310000509040100D5
:101F2800020A0000000705030200020007058402F8
:101F38000002000904020002FF6AC70007058102C7
:101F48000002010705010200020100000A06000262
:0C1F5800EF02014001000000000000004A
:101F6400000000000000000000000000000000006D
:101F7400000000000000000000000000000000005D
:101F84000548064B1B1AD90F01EBA301491002D0D7
:101F9400034B03B118477047C0220020C022002021
:101FA4000000000008B5054B1BB105490548AFF317
:101FB4000080BDE80840FFF7E3BF00BF0000000059
:101FC400303200200080016000207047704700BF5D
:101FD400036D0BB101207047406D003818BF01201C
:101FE400704700BF10B50446806D18B10CF0B2FC08
:101FF4000023A365236D2BB104F11800BDE8104044
:1020040005F01EBE636D002BF6D110BD08B507F0B8
:1020140029FE002108BD00BFF8B50D46074606F0AD
:10202400F9FE064606F0DEFE044606F0C3FEE3B201
:10203400C0B20C2B98BF1F2804D8A6F2BC76B6B247
:102044007F2E21D900233B8006F06CFE044606F067
:1020540081FE064606F096FEE2B2F3B2C0B2172A3B
:1020640098BF3B2B01D83B2802D900232B80F8BD15
:10207400E302760103F4FF2306F4FF56334343EAF5
:1020840050039BB22B80F8BD630103F4FF53034359
:1020940043EA46239BB2D6E710B5044606F072FF26
:1020A400204610BD10B50446806D00B110BD4FF43C
:1020B40080700CF047FCA065B0B10022236D027063
:1020C4003BB101464FF48072184605F065F9A06DE6
:1020D40010BD636D002BE9D001464FF480721846A1
:1020E40003F044F8A06D10BD014B1846A36510BD64
:1020F400CB32002038B5056D6DB10BB1002038BD71
:102104001146284604F0C0F80028F7D02846BDE858
:10211400384004F05BBA446D002CEFD0204601F047
:1021240095FE0028EAD02046BDE8384002F046BEBD
:102134008A79A2F150031B0622D402F26C72F0B524
:102144004B7985B0046D01330D798E784F78DBB20D
:1021540009784CB1204601960095CDE9027104211D
:1021640004F0C8F905B0F0BD406D0028FAD001961E
:102174000095CDE90271042102F064FD05B0F0BDC3
:102184000020704710B50446006D80B1037813F049
:10219400700F00D110BD002104F076F8606D0028A6
:1021A400F8D000220023BDE8104001F04FBE606D5E
:1021B4000028EFD090F8313013F0500FEAD000220D
:1021C4000023BDE8104001F041BE00BF036D10B50F
:1021D4000C4682B02BB30DF1060201A9184603F098
:1021E400F9FB38B3BDF80430BDF8062053EA020108
:1021F40020D0C2F3451C02F01F00D20AC3F34311DE
:10220400400084F801C0A2705A0A013903F01F0388
:1022140002F5EA622070012061712371A27102B09B
:1022240010BD406D30B10DF1060201A901F0B4FCFE
:102234000028D7D1002002B010BD00BF036D10B537
:102244000C4682B02BB30DF1060201A9184603F027
:10225400B1FB38B3BDF80430BDF8062053EA0201DF
:1022640020D0C2F3451C02F01F00D20AC3F343116D
:10227400400084F801C0A2705A0A013903F01F0318
:1022840002F5EA622070012061712371A27102B02B
:1022940010BD406D30B10DF1060201A901F06AFCD8
:1022A4000028D7D1002002B010BD00BF006990B152
:1022B4000368154A1B69934225D1036D63B11878ED
:1022C40010F0080007D0D8695B69C01A48BF6FF0E6
:1022D4000040704718467047436D002BFAD093F8BE
:1022E400310010F00800F6D0186919685A69401ACC
:1022F4005B6862EB0303B0F1004F73F10003EAD3B0
:102304006FF0004070471847B1060000036923B31B
:102314001968134A10B58C6882B0944214D1186DB0
:1023240048B101220DF1070103F066FD90B19DF85B
:10233400070002B010BD586D0028F8D001220DF13D
:10234400070101F09DFCF1E701220DF10701184698
:10235400A047EBE74FF0FF30EBE74FF0FF3070475B
:1023640099050000036963B11A68074992698A42B2
:1023740008D1186D08B104F0B7B8586D08B102F06F
:10238400EBBA704718461047E9050000036973B1BA
:102394001A68084952698A4207D1186D08B103F0D6
:1023A400FFBD586D18B101F03BBD184610474FF002
:1023B400FF30704741050000036D13B158690021D7
:1023C4007047436D13B1D3E90001704718461946AD
:1023D400704700BF036D13B1D86900217047436D86
:1023E40013B1D3E90401704718461946704700BF7A
:1023F400F0B595B000224FF47A74244F1831054695
:1024040004A88DF80C200097CDE90124CDE912220F
:1024140005F082FC129B002B2DD05C20002607F0D7
:1024240033FB019B04464660C36004A9029B183039
:1024340040F8083C9DF80C3000F8043C144B40F87C
:10244400183C144B40F8103C05F0B8FB124B4FF409
:102454007A72A7602B606368A66501336E602E7381
:10246400AA602C6163600D4B04A8009305F0E8FB9F
:10247400284615B0F0BD139B002BCED1064A2B7312
:102484002A602B61C5E90134EDE700BFD40B0020BD
:10249400F80B0020540C0020A80B0020EC0A0020AC
:1024A400036D13B1184603F07BBD406D08B101F014
:1024B400B7BC4FF0FF307047836C13B1184603F07C
:1024C4006FBDC06C08B101F0ABBC4FF0FF3070477A
:1024D400036D33B11B7813F0700F14BF012000207B
:1024E4007047406D30B190F8313013F0500F14BF85
:1024F40001200020704700BF036D13B1184603F09C
:102504007BBC406D08B101F0BBBB4FF0FF3070479E
:10251400836C00B583B063B101220DF10701184645
:1025240003F06AFC01280CD19DF8070003B05DF8A4
:1025340004FBC06C28B101220DF1070101F0A0FBDE
:10254400F0E74FF0FF30F1E7036D13B1184603F0E5
:10255400CBBF406D08B102F0FFB97047836C13B173
:10256400184603F0C1BFC06C08B102F0F5B970475A
:102574008A79A2F150031B0622D402F26C72F0B5E0
:102584004B7985B0046D01330D798E784F78DBB2C9
:1025940009784CB1204601960095CDE902710221DB
:1025A40003F0A8FF05B0F0BD406D0028FAD00196F5
:1025B4000095CDE90271022102F044FB05B0F0BDA3
:1025C40000207047836C53B1187810F008000DD0C8
:1025D400D8695B69C01A48BF6FF000407047C36C8C
:1025E400A3B193F8310010F0080000D170471869C6
:1025F40019685A69401A5B6862EB0303B0F1004F33
:1026040073F10003F2D36FF0004070471846EDE712
:10261400036D53B1187810F008000DD0D8695B69C8
:10262400C01A48BF6FF000407047436DA3B193F8E0
:10263400310010F0080000D17047186919685A6910
:10264400401A5B6862EB0303B0F1004F73F10003BF
:10265400F2D36FF0004070471846EDE7036D13B1F5
:10266400184603F0EDBF406D08B102F019BC704785
:10267400836C13B1184603F0E3BFC06C08B102F0D9
:102684000FBC704700B5836C83B08DF8071043B15D
:1026940001220DF10701184603F0D2FF03B05DF8E3
:1026A40004FBC06C0028F9D001220DF1070102F0EF
:1026B400F7FB03B05DF804FB00B5006983B08DF847
:1026C400071060B10368104ADB68934215D1036DAB
:1026D40043B101220DF10701184603F0B1FF03B025
:1026E4005DF804FB406D0028F9D001220DF10701CB
:1026F40002F0D6FB03B05DF804FB01220DF10701E3
:10270400984703B05DF804FBFD0600000369D3B1EC
:102714000E4810B41C68E46884420FD1186D18B1D7
:102724005DF8044B03F08CBF586D18B15DF8044B91
:1027340002F0B6BB00205DF8044B704718462346F0
:102744005DF8044B18470020704700BFFD060000E9
:1027540038B504460C4B806D236018B10CF0FAF8C0
:102764000023A365236D04F118054BB1284605F039
:1027740067FA064B2846A36005F062FA204638BD86
:10278400636D002BF2D1F4E7F80B0020EC0A002073
:1027940038B504460E4B806D236018B10CF0DAF89E
:1027A4000023A365236D04F118056BB1284605F0D9
:1027B40047FA084B2846A36005F042FA20465C21FC
:1027C40007F064F9204638BD636D002BEED1F0E7C5
:1027D400F80B0020EC0A002070B52D4C236963B37C
:1027E4001A682C49126B8A4224D11A6D4AB3082103
:1027F400294A2A4DC2F8841029681A682848D668DC
:10280400864239D1186D50B34FF4F07203F018FFBB
:10281400236943B11A68234992698A4235D1186DF4
:1028240020B303F061FE1C4B0822C3F88820002368
:102834002B6070BD1846904738B9184D00232B60A3
:1028440070BD5A6D002AD2D1F7E70821124A134D00
:102854002369C2F884102968002BE4D0CDE7586DB1
:1028640078B14FF4F07202F01BFBD1E7586D0028E9
:10287400D9D002F071F8D6E718464FF4F072B04799
:10288400C6E7926907498A42F0D018469047CAE7DA
:10289400B01B00207100000000400042983200206C
:1028A400FD060000E90500002DE9F843664BD3F866
:1028B40000802DED0E8BB8F1000F00F09580634F72
:1028C4003A680E2A00F294803D68002406F0E0F98C
:1028D4005F4E4FEA451908EB451548F8090006F024
:1028E40093FF0E2006F07EFDA8809FED4BBB9FED6D
:1028F4004CAB9FED4DCB9FED4EDB83B2DFED55EA44
:1029040005EB44089FED54EA00EE103A06EB440947
:1029140008F104080421B8EEC00B50489FED469B13
:1029240020EE0B0B9FED468B20EE0A0B06F0FCFB12
:10293400013401214A4808F0A1FA0D2C4DD039F890
:10294400020FC0B206F04EFD0C2C83B228F8023FF1
:102954003CD00B2CD1D107EE903AB7EE006BB8EE19
:10296400677B8CEE070B30EE460B20EE0D0BB7EEBB
:10297400C00B0BF055FFF0EE4E4ADFED3A7AB7EE9E
:10298400004AB2EE025B0421E0EE2E4A334860EEC8
:10299400277AB1EE046B67EE807AE0EE274A84EE84
:1029A400247AB7EEC77A37EE497BB7EEC77BB7EE2A
:1029B400C77A27EE057B87EE060B30EE080BB7EEE1
:1029C400C00BB7EEC00A06F0AFFBB1E781B22348F3
:1029D40006F074FB214806F07DFB23493A680B6836
:1029E400013201333A600B60BDEC0E8BBDE8F88315
:1029F4001E4A116819B11E48016801310160C2F80C
:102A0400008000211B4A3960904508BF1A4A90464D
:102A14001A6059E7AFF300800E4FAF9465880A40FF
:102A2400000000000000303F000000000000B04043
:102A3400000000000088C340666666666612714046
:102A44000000000000004040402E0020043200201E
:102A540064070020D6647939CB48843A00160020F4
:102A6400FC0500206CCF5834802A002098320020C6
:102A740048320020442E00202430002030B4029C30
:102A840011469C4634B1012C1CD0022C0ED00020DF
:102A940030BC7047056DF5B14FF0FF33934274EBD2
:102AA4000C04F4D3284630BC03F0EEBB026D0AB329
:102AB400D36959184CF10003002BE8D1104630BCFF
:102AC40003F0E2BB026D62B1536959184CF1000383
:102AD400002BDCD1F2E7406D0028D8D030BC01F0E7
:102AE400B5B9406D0028D2D0D0E900238A184CEB48
:102AF4000303F3E7406D0028C9D0D0E9042330BCB8
:102B04008A184CEB030301F0A1B900BF70B5244B44
:102B1400044605690360002D32D06E68013E6E6084
:102B240076BB2B681F4ADB6A93422FD1A86D10B184
:102B34000BF010FFAE652B6D23B305F1180005F003
:102B44007FF82569E5B12B68174A5B68934224D165
:102B5400164BA86D2B6018B10BF0FCFE0023AB657F
:102B64002B6D05F11806A3B1304605F069F8104B3A
:102B74003046AB6005F064F85C21284606F086FF19
:102B8400204670BD6B6D002BD7D1DAE728469847F5
:102B9400D7E76B6D002BE7D1E9E728469847EFE7C5
:102BA400A80B00208500000031080000F80B00206D
:102BB400EC0A002070B5264B044605690360002D1D
:102BC40032D06E68013E6E6076BB2B68214ADB6AA8
:102BD400934233D1A86D10B10BF0BCFEAE652B6DE2
:102BE40043B305F1180005F02BF82569E5B12B680E
:102BF400194A5B68934228D1184BA86D2B6018B111
:102C04000BF0A8FE0023AB652B6D05F11806C3B1CC
:102C1400304605F015F8124B3046AB6005F010F85D
:102C24005C21284606F032FF2046142106F02EFFD0
:102C3400204670BD6B6D002BD3D1D6E7284698474C
:102C4400D3E76B6D002BE3D1E5E728469847EBE724
:102C5400A80B00208500000031080000F80B0020BC
:102C6400EC0A00200000000070B51E211A4C1B481D
:102C740004F11A061A4D2DED048B08F0FFF81948DB
:102C84009FED119B9FED128B06F024FA34F8023F5E
:102C94002946144807EE103AB8EEC77B27EE097BA5
:102CA40027EE087BB7EEC77BB7EEC77A53EC172B3A
:102CB40006F02CFAA642E9D1BDEC048B0948BDE824
:102CC400704006F007BA00BF0E4FAF9465880A4003
:102CD400000000000000303F462E0020E8040020E1
:102CE400080500200016002008B52D4806F0F2F96A
:102CF40036212C4808F0C2F8294806F0EBF92A4B93
:102D0400186900283FD00368284A1B6B934237D1C7
:102D1400036D002B3FD0264B264921481A6806F044
:102D2400F5F91321244808F0A9F81D4806F0D2F952
:102D34001821224808F0A2F8194806F0CBF91D2101
:102D44001F4808F09BF8164806F0C4F91D211D48D9
:102D540008F094F8124806F0BDF91C211A4808F04E
:102D64008DF80F4806F0B6F91B21184808F086F8CC
:102D74000B4806F0AFF90A48BDE8084006F0AAB9C6
:102D840098470028C7D11221114808F077F8044861
:102D940006F0A0F9C5E7436D002BBCD1F3E700BFF3
:102DA4000016002000060020B01B00207100000067
:102DB400802A002010050020500500206405002012
:102DC40080050020A0050020C0050020E0050020AB
:102DD4003C05002010B5FE210C4805F09FFD04467B
:102DE40058B114210A4808F049F80A4806F072F963
:102DF400094805F00DF9204610BD2021074808F0C8
:102E04003DF8044806F066F9204610BDB0240020C1
:102E1400D004002000160020B9000000AC040020FB
:102E240030B585B005F034FF04460D4605F0D8FEF4
:102E3400024620462946039205F014FF034629461C
:102E44002046029305F0F8FE844629462046074DA5
:102E5400644605F0DBFE0649019028460094DDE94E
:102E640002320CF011FB284605B030BD0C2B0020BB
:102E7400900400202DE9F843414D4FF4FA7006F018
:102E84006FFC404C2E6840F2EE283F4FDFF82C9147
:102E940008F072F82378002B3FD03B78DB073CD551
:102EA4002B68D9F800209B1A0E2B36D9374C4FF4D7
:102EB4007A7006F055FC0E2004F1180501E034F890
:102EC400020FC0B2052106F005FDAC42F7D1202265
:102ED4002F49304806F01AF901210D2006F0FAFCBA
:102EE400FFF702FF17212C4807F0C8FFFFF772FF16
:102EF40000BB1621294807F0C1FF2648284D0824A5
:102F040006F0E8F86420C5F8844006F029FC642043
:102F1400C5F8884006F024FCF4E72B6822789B1B54
:102F24002AB1B3F5FA6FC1D808F026F8B0E74345E3
:102F3400FAD9BBE71B4C20212368D86E00F09EFD14
:102F440023680C21D86E00F0DDFC23680221D86EC2
:102F540000F014FB23680521D86E00F03BFC124AF4
:102F64001249134805F0AAFF1521124807F086FFFD
:102F7400084806F0AFF81048BDE8F84305F064BF10
:102F8400A0320020D5320020D43200206407002073
:102F940084130020001600209C130020B41300208A
:102FA40000400042902A00207F8D5B004909000008
:102FB400F0150020CC130020AD000000B03200203A
:102FC4002DE9F04194B007F0EFFE002840F0F380C3
:102FD400984B1B68002B00F0EB8014B0BDE8F04167
:102FE400FFF7FABB944D2C69002C00F0E8812368AC
:102FF40092491A6B8A4240F0DC81226D002A00F06B
:10300400E781DB6A8E4FBB4240F00F82A06D18B19E
:103014000BF0A0FC0023A365236D002B00F0F381CB
:1030240004F1180004F00CFE2E697468013C74600D
:10303400002C40F0D7813368DB6ABB4240F0098240
:10304400B06D10B10BF086FCB465336D002B00F04D
:10305400FB8106F1180004F0F3FD2C69002C00F04C
:10306400C1812368774A5B68934240F00282764BC1
:10307400A06D236018B10BF06DFC0023A365236DD4
:1030840004F11806002B00F0EF81304604F0D8FD5F
:10309400DFF8E0813046C4F8088004F0D1FD5C21FB
:1030A400204606F0F3FC00232B61FFF7B9FE44F23F
:1030B400022302466549684604F0DCFE129B002B9D
:1030C40000F080815C20002706F0DEFC5E4B04AE3D
:1030D4000446C0E90037019B1830314640F80C3CE7
:1030E4005B4B40F8103C029B40F8083C9DF80C30C8
:1030F40000F8043C04F062FD6368A7650133636073
:10310400544BA3603046CDF8008004F099FD2E693D
:10311400002E39D07768013F7760002F34D13368AF
:10312400474ADB6A934240F07881B06D10B10BF0EE
:1031340011FCB765336D002B00F0608106F11800B7
:1031440004F07EFD2E69FEB133683E4A5B6893420B
:1031540040F071813C4BB06D336018B10BF0FAFB59
:103164000023B365336D06F11807002B00F0588176
:10317400384604F065FD3846C6F8088004F060FD62
:103184005C21304606F082FC0026334B2C611E6025
:10319400FFF746FE31490246314805F0B7FF314B8F
:1031A4003148324A324906601E60224B11601E606B
:1031B40014B0BDE8F08107F03BFEC4B22046633C86
:1031C40007F046FE264805F085FF132C3FF600AFB6
:1031D40001A353F824F000BF851000000F14000071
:1031E40071100000711000007110000071100000D7
:1031F40071100000711000007110000071100000C7
:1032040071100000711000007110000071100000B6
:103214001913000071100000CF120000711000009B
:1032240071100000C9120000FFF71EFDD0E6FFF781
:103234005BFDCDE698320020B01B00207100000039
:103244008500000031080000F80B0020B4240020A1
:10325400540C0020D40B0020802A00203C130020B2
:10326400001600204832002004320020402E0020A6
:10327400442E0020EC0A0020834D0023834E2C6949
:103284003360002C6CD0236881491A6B8A4240F069
:10329400AC80226D002A00F0A080DB6A7D4FBB4227
:1032A40040F0C680A06D18B10BF054FB0023A36559
:1032B400236D002B00F0AC8004F1180004F0C0FC76
:1032C400D5F81080D8F80440013CC8F80440002C1C
:1032D40037D1D8F80030DB6ABB4240F0BD80D8F863
:1032E400580018B10BF036FBC8F85840D8F85030E5
:1032F400002B00F0A38008F1180004F0A1FC2C6955
:10330400FCB12368644A5B68934240F0B780634B26
:10331400A06D236018B10BF01DFB0023A365236D82
:1033240004F11807002B00F09A80384604F088FC5A
:103334005B4B3846A36004F083FC5C21204606F016
:10334400A5FB00232B611721564807F097FD56482B
:1033540005F0C0FE554B564953481A6805F0D6FE91
:1033640000235449544A0B603360136020E7112151
:10337400524807F083FD4C4805F0ACFE504BD3F89F
:10338400840450B100230622474900F5896003F004
:103394008DFE454805F09EFE1AE6D3F88844002CBD
:1033A400F7D003460622404904F5896001F0CEF8BF
:1033B400EFE72046904710B12C69002C61D1DFF86B
:1033C400E08072E6139C002C7FF47CAE04AE99E698
:1033D400626D002A7FF415AEF1E7626D002A7FF476
:1033E4005CAFBDE7DFF8B8805DE620469047002873
:1033F400B6D02C69002CA6D023684EE7736D002B41
:103404007FF49CAE9EE6636D002B7FF409AE0BE661
:10341400636D002B7FF450AF52E73046984791E636
:10342400736D002B7FF4A4AEA5E620469847FBE518
:103434002046984744E730469847A5E6D8F85430E4
:10344400002B7FF458AF5AE7736D002B7FF401AE65
:1034540003E63046984700E6404698474FE7636DD9
:10346400002B7FF462AF63E7636D002B7FF40DAE36
:103474000EE62046DFF82880984714E62046984751
:103484005FE72368BDE500BFB01B002004320020C5
:10349400710000008500000031080000F80B0020D6
:1034A400EC0A00200C1300200016002048320020F3
:1034B4002413002098320020402E00208C05002088
:1034C400B024002010B57C2006F0DEFA044600F09B
:1034D4001BF8074B0749084A08481C6007F0B0FE70
:1034E400054A07490748BDE8104007F0A9BE00BFD8
:1034F400902A00203901000020160020F015002039
:10350400AD0B0000B01B002038B504460A4B0B4A33
:10351400002104F1340500F08DFA094B0121094A18
:10352400284600F087FA0223204684F86830C4E96C
:103534001B45C4E91D4538BD00400C40300900203E
:1035440000800C405C09002072B60123826A437536
:1035540072B6936C23F08003936462B6826A72B687
:10356400D36C43F00203D36462B6826A72B6936C7E
:1035740043F08003936462B662B67047837F8B42E4
:1035840000F0E08070B4042900F20C81DFE811F04F
:10359400250073009000B5000500826A72B6536C72
:1035A40043F48063536462B6826A72B6936C43F0E8
:1035B4000103936462B6826A72B6536C43F00303E8
:1035C400536462B6826A72B6536C23F06003536428
:1035D40062B670BC8177FFF7B7BF826A72B6536C6C
:1035E40023F48063536462B6826A72B6536C43F008
:1035F4008003536462B66F4A6F4B14689C4280F038
:1036040084806E4B9C4274D26D4B9C4280F09B80B4
:103614006C4B00229C42164634BF00240124856A68
:1036240072B6AB6C23F00103AB6462B6836A002A02
:1036340000F0818072B65A6C42F001025A6462B69C
:1036440072B65A6C22F002025A6462B6836A002C83
:103654005FD072B65A6C42F020025A6462B6002EF1
:103664005FD072B65A6C42F040025A6462B670BCC3
:103674008177FFF769BF826A72B6536C23F4806363
:10368400536462B6826A72B6536C23F08003536447
:1036940062B6484A484B12689A4258D2474B9A42FB
:1036A40068D2474B9A4273D2002216461446B6E7B4
:1036B400826A72B6536C43F48063536462B6826A5E
:1036C40072B6536C23F08003536462B6394B3E4A9E
:1036D4001B689342E8D93D4A934255D93C4A9342E8
:1036E40031D902F1186202F5162202F6040293425D
:1036F4000BD801260022344691E7826A72B6536CD5
:1037040023F48063536462B64EE7012216461446DE
:1037140085E772B65A6C22F020025A6462B6002E13
:103724009FD172B65A6C22F040025A6462B670BCE1
:103734008177FFF709BF72B65A6C22F001025A640E
:1037440062B67DE7704700220126144667E71F4BE7
:103754009A4223D91E4B9A421ED903F118630126BB
:1037640003F51623344603F604039A4294BF002259
:10377400012254E7144B9A420AD92024203400220F
:103784000126C4F340144AE700220124164646E702
:1037940000260124324642E74024EFE700240126B4
:1037A40022463CE7438A9BB243F0010370BC438248
:1037B400704700BFF81500200090D0030048E801CE
:1037C4000024F40000127A00005A620201B4C40416
:1037D4000368890938B5437D04460D46EBB9072DC6
:1037E40019D8DFE805F01D33404D53595F04A26A30
:1037F40072B6536C23F01003536462B6A36A72B6B4
:103804005A6C22F480725A6462B672B65A6C22F40C
:1038140000725A6462B6E57738BD00F049F8DEE715
:10382400A26A72B6536C43F01003536462B6A36A7F
:1038340072B65A6C42F480725A6462B672B65A6CAA
:1038440042F400725A6462B6E57738BDA26A72B671
:10385400536C43F01003536462B6A36A72B65A6C95
:1038640022F48072E8E7A26A72B6536C43F0100344
:10387400536462B6A36A72B65A6C42F48072C2E7A9
:10388400A26A72B6536C43F01003B5E7A26A72B62B
:10389400536C23F01003C8E7A26A72B6536C23F08A
:1038A4001003D8E7A26A72B6536C23F01003DFE763
:1038B40038B50021836A827D9D6CDB6C417502B949
:1038C40038BD04460121FFF759FE0321FFF782FFAB
:1038D400637D93B9A26A72B6936C43F02003936438
:1038E40062B6A26A72B6536C23F44043536462B660
:1038F400042200232277A37538BD2046FFF7D8FFA2
:10390400E8E700BF38B5C37D8B4219D0437D044638
:103914000D4603BB092D14D90B2DA36A1ED872B60C
:103924005A6C42F004025A6462B672B65A6C22F0BF
:1039340008025A6462B640F2FF320A23A261E375B8
:1039440038BDA26A72B6536C23F00C03536462B69A
:10395400FF220823F2E7FFF7ABFFDBE772B65A6CEE
:1039640022F004025A6462B672B65A6C42F008023B
:103974005A6462B640F6FF720C23DFE710B5037D8C
:1039840004462B4A002B49D1D36E43F44033D3660B
:1039940000234FF40072A16AE375A361A28384F843
:1039A400243072B64A6C42F480324A6462B640F201
:1039B4000271627F63756382E183637452B1A26AA8
:1039C400637772B6536C23F4C053536462B62046D3
:1039D400FFF7BAFD0A212046FFF794FF0122637D19
:1039E400A27503BBA26A72B6936C43F0200393647E
:1039F40062B6A26A72B6536C43F44043536462B62F
:103A04002023204600212377FFF7B8FD0121FFF78B
:103A1400E1FE2046BDE81040FFF796BDD36E43F4A7
:103A24004073D366B4E72046FFF742FFDAE700BFEE
:103A340000C00F40002910B583620CBF0B4603235E
:103A4400026214BF6B22672280F82E300CBF0B4633
:103A540004230446017580F82F3014BF2723242340
:103A640080F82D2080F82C3014BF4423432380F8A1
:103A74003030FFF783FF204610BD00BF38B5437DCB
:103A840004460D46002B30D1012DA26A24D972B60A
:103A9400936C43F02003936462B6042D09D8A26AA0
:103AA40072B6536C23F44043536462B60423237701
:103AB40038BD082D1CD9102D2AD8A36A72B65A6CA9
:103AC40022F480425A6462B672B65A6C42F40042DE
:103AD4005A6462B61023EAE772B6936C23F02003AB
:103AE400936462B60023237738BDFFF7E1FECBE78A
:103AF400A36A72B65A6C42F480425A6462B672B6D1
:103B04005A6C22F400425A6462B60823237738BD03
:103B1400A26A72B6536C43F44043536462B62023E2
:103B2400C5E700BF70B500F1240384B08C46044699
:103B340001AD164693E8070085E807004FEA4C12EA
:103B44002946206A01F0A6FC012806D132462946FE
:103B5400206A01F083FC04B070BD002004B070BD85
:103B640010B5044600F0F8FE002384F8313084F8E0
:103B7400333010BD38B514460D46002200F124013F
:103B8400006A01F06BFC034620B1428901202A80BF
:103B94001B89238038BD00BF38B514460D4600226A
:103BA40000F12401006A01F059FC034620B1C289E6
:103BB40001202A809B89238038BD00BF38B50D467B
:103BC40090F8311009B1002038BD382204460BF0BA
:103BD400D3FD012340222562184684F8333084F84B
:103BE400312038BDF0B40D460978202903D115F8E9
:103BF400014F202CFBD0156095602C782F2C11D010
:103C040084B16E1C3C2C1D4F35462AD8212C12D869
:103C140004F1FF3CBCF11E0F16D80020F0BC704725
:103C240015F8014F202CFBD02F2CF9D01D60114624
:103C3400F0BC01F001BBA4F1220C5FFA8CFC27FA62
:103C44000CFC1CF0010FE8D12E2C01D0202C0DD13E
:103C540016F8014B002CE5D02F2CE3D03C2C354634
:103C6400D4D95C2CD9D003D97C2CD6D09660EFE77C
:103C74003E3C012CFAD80020F0BC7047012100051D
:103C84002DE9F04F90F8333083B00546DC0774D546
:103C940058060F46904640F1B080D5E90023D5E997
:103CA400041018EB020443F10003A14270EB030378
:103CB400C0F0A980B8F1000F5BD0464605F11809A1
:103CC400D5E90032D5F820A0DAF838441C40C4F312
:103CD400080B002C70D1134370D195F831305A067B
:103CE4004CBFDAF83424EA69AA619AF84504023A26
:103CF400DAF82C14630A824001EB54211144BBF11D
:103D0400000F45D1B6F5007F42D3DAF81C22914268
:103D14003ED0B6F5806F58D34FF0010B0BFA00FB81
:103D2400ABEB030B730A9B4528BF9B4691424FEABA
:103D34004B240AD801EB0B039A4206D20AF504700D
:103D4400019104F007F90199B8B1DAF814025B465D
:103D54000268D2F814A03A46D04770B123462744EB
:103D6400D5E900125B1842F10002361BC5E90032A6
:103D7400A8D1404603B0BDE8F08F95F832304FF03B
:103D8400FF3043F0020385F8323003B0BDE8F08F12
:103D9400CBF5007400220AF50470B44228BF3446FF
:103DA40004F004F90028E8D000EB0B012246384661
:103DB40005F0D0FD2346D2E7AA6996E795F833309B
:103DC4005B060ED5AA6901328EE7DAF814023A4688
:103DD40003681B6998470028CFD04FF400731C4632
:103DE400BDE74A465046A96901F096FB0028C4DBAA
:103DF4000CD0D5F820A0AA6977E795F831301907D7
:103E04007FF558AF49E7A1EB020853E795F8313045
:103E140013F0500FB1D0A8EB06084046AAE700BF44
:103E2400F0B583B00122044685690DF10701D0E99C
:103E34000067FFF725FF0128A5610CBF9DF8070067
:103E44004FF0FF30C4E9006703B0F0BD2DE9F04F37
:103E54001F4690F8313083B00446D0F81880002B08
:103E640051D01646D0E9001CBC4508BF91425CD035
:103E740056EA07024DD01D0704D5D0E90402B0422A
:103E8400BA4140D394F83320751ED4F820A001928F
:103E940047F1FF309AF845240932D2B2C2F1200E1C
:103EA400D540A2F1200900FA0EFB20FA09F045EAF8
:103EB4000B0505430198400633D4481E20FA02F24C
:103EC4004CF1FF3051EA0C0C00FA0EFE20FA09F016
:103ED40042EA0E0242EA000201D0954229D25B0670
:103EE4004CBFDAF83434E369A36104F1180906E03D
:103EF400A169013D206A01F00FFB002803DD4A4659
:103F0400002DF5D107E00020C4F8188003B0BDE807
:103F1400F08F002383610120C4E9006703B0BDE88A
:103F2400F08FE3692B44A361F5E7012003B0BDE8FA
:103F3400F08FAD1AD9E700BF2DE9F04F174690F87E
:103F440031208FB00546002A40F0D7808B4691F887
:103F5400311011F0500F00F0D08003F003019A46A5
:103F6400032900F0CA80013103F0080041EA00038C
:103F74000293002F00F0CB80396901F10E08B64995
:103F8400A1FB0818DBE900104FEAD808014308F147
:103F940002085FFA88F805D000200021CBF8182029
:103FA400CBE900010024029B264643F0400303931F
:103FB400202206A95846FFF763FE00B3202840F0EC
:103FC4009C809DF918209DF81830002AC0F2A28028
:103FD40034B9DBF80020A2F12009DBF818200192A3
:103FE400444501D20134E4B2002B00F013812022B5
:103FF40006A958460026FFF743FE0028DED11AF42E
:10400400007F7AD0029B9B0777D5002F75D044455B
:1040140017D2DDF804A0202206A95846FFF730FE87
:10402400631C002861D0202867D12CB9DBF800205C
:10403400DBF818A0A2F12009DCB2A045EBD8CDF83A
:1040440004A03822002128469BF833400BF094FB4F
:10405400DBF82030C4F38014019A2B620823002675
:1040640085F82C4085F831303B68C5E909297B6027
:10407400BE81B8F1000F33D008F1FF39B346DFF841
:10408400DCA15FFA89F9012259462846FFF74AFD67
:10409400044690B390F90020002A2EDB2022002150
:1040A4000BF06AFB002E00F0BC80BBF1010F00F0A6
:1040B400D780C123A3461E3404F81E3CBB8938466E
:1040C4001BB9D7E901239A4205D004F013F82BF861
:1040D400020FA345F2D101365FFA86FBD845D2D848
:1040E400284600F039FC06460DE05846DBF8186017
:1040F40000F062FC002840F0918000231E4685F801
:10410400313085F8333030460FB0BDE8F08F4FF0D2
:10411400030847E756BB444538BF0024852B7FF48A
:1041240047AF31463822284601260BF025FB9DF87F
:104134001C209DF8193085F8303002F03703D20680
:1041440058BF43F0080385F83130DBF80030DBF862
:104154002020203B2A62DBF81820C5E909239BF8BC
:104164003330C3F3801385F82C3021E7C02B28D0DB
:10417400C12B7FF43CAF3A4606A9284600F0D0FF95
:10418400E8B1BB89DBB9D7E901329A4217D11AF4F5
:10419400006FB2D11AF4884F70D195F83330980774
:1041A4006CD41AF4806FA8D11AF4804FABD028468F
:1041B400D5E90423FFF74AFE0028A4D19DE706466B
:1041C400F6E6029B85F833309DF819309B0702D53B
:1041D400039B85F833300B9BEB61DDE90823C5E9CC
:1041E4000423DDE90C23C5E90223002FCFD04FF0CF
:1041F40000033A69BB813B687B609DF81B309A429F
:104204007FF4F5AEBE8ABDF81C30F61AB6FA86F60F
:104214007609CDE6002F7FF4F2AE6EE7CBF8186096
:104224000BE78523237085F8309084F80190DAF841
:104234000030002B46D00DF113020DF1160105A834
:104244009847BDF814306381BDF8163023819DF87A
:10425400133023753FE700BF89888888C82A002067
:10426400C02384F801B02370029B63F07F0385F8B8
:1042740033303B69E370BB8AA3802CE795F8313077
:10428400D9063FF53AAF13F001017FF436AF1AF4C3
:10429400806F89D095F8332092077FF52EAF002BDD
:1042A4003FF42BAFD5E90032134304D0002200239E
:1042B400A961C5E90023284600F080FD00283FF4E9
:1042C4001CAF20E745F621036381E381638202E7A3
:1042D4002DE9F043002597B0994690F831300192CA
:1042E4001495ADF81450002B3ED191F831300F469F
:1042F40013F0500F38D01378044616462F2B37D0BE
:104304004FF0000801AB02AA31462046FFF76AFCD1
:1043140050B3019E3378002B3ED0002302AA3946C5
:104324002046FFF709FEF8B1A44608AD04F13007B2
:10433400DCF800000CF1100C5CF80C1CAE465CF8C8
:10434400082C10355CF8043CBC45AEE80F00EFD1F6
:10435400DCF8000008AF2860204600F0FDFA84F87D
:10436400318084F83380CDE7002017B0BDE8F083B6
:1043740016F8011F2F29FBD00196B1B93822204627
:104384003D6A0BF0F9F9012340222562184684F8AE
:10439400333084F83120E8E74B4602AA39462046F8
:1043A400FFF7CAFD17B0BDE8F0833822002108A842
:1043B4003D6A0BF0E1F9012308AF10958DF85330F5
:1043C40040238DF851309BE719B101F58961FFF75E
:1043D4007FBF0846704700BF90F8313063B991F849
:1043E400313013F0500F07D00B6813F01F0C03D1BA
:1043F40013466246FFF7A0BD002070472DE9F04F39
:1044040090F8303083B0012B4CD9002681460F46FA
:104414004FF0020A3446002251464846FFF782FB19
:1044240000283FD00378C12B3CD1054600F11E087B
:10443400EB4635F8020F3CB300F510539BB2B3F5CD
:10444400806F2FD21A4BC0F3090003EA842420435F
:1044540000F580300DF10502594603F071FE08B3F2
:104464003B68A0EB0B02594638465B68002498472A
:1044740006444545DDD10AF1010A99F830305FFA66
:104484008AFA5345C7D20EE000F520539BB2B3F528
:10449400006F02D30028DDD1EDE7B3F5806F01D2C0
:1044A4000446E6E70026304603B0BDE8F08F00BFBF
:1044B40000FC0F002DE9F04186B000230D46224E8A
:1044C40005AC4FF0CC3C8DF81430D0E90472BB1825
:1044D4003946104643F1000301F1300EA6FB0327D1
:1044E40027F0030202EB97029B1ACB1A60F1000833
:1044F4000CFB03F2A3FB06370A2906FB08224FEA4A
:10450400530370F100003A4443EAC2774FEA52027F
:1045140007EB8303AEEB430E04F801EDD7D202A8F8
:10452400844204D9221A202104460BF025F920469E
:104534000BF096FA2B68024621465B68284698479A
:1045440006B0BDE8F08100BFCDCCCCCC2DE9F0475E
:104554001F4690B000230E9390F8313013F0500FA3
:1045640003D1002010B0BDE8F0878046914602F0E8
:10457400010A002300220D46FFF768FC0022414691
:1045840002A8FFF729FF80B19DF839309B0718D5A1
:10459400BAF1000F15D102A8FFF7E2FA0022414652
:1045A40002A8FFF719FF0028EED198F83130002B4C
:1045B400D7D098F83230002BD3D1012010B0BDE809
:1045C400F0874FB1002401342B6820212846E4B23F
:1045D4001E68B047A742F6D119F0020F37D119F07F
:1045E400040F2AD19DF839306BB1294602A8FFF790
:1045F40005FF9DF8393013F0500F04D02B682F219C
:1046040028461B6898472B680D2128461B68984745
:104614002B680A2128461B68984719F0080FBAD05E
:104624009DF8393013F0500FB5D0BB1C4A462946CB
:1046340002A8DBB2FFF78AFFADE7294602A8FFF71D
:1046440039FF2B68202128461B689847CAE70DF1DB
:10465400060201A902A8FFF79FFA28B92B682021B6
:1046640028461B689847BAE7BDF806202846BDF8D7
:10467400041003F01DFDF1E78169F8B50446006AF2
:1046840001B10131012200F00DFE0128054632D9A5
:1046940001230146206A1A4600F064FE064650B320
:1046A400A3695BB394F83320510612D5591CA9426F
:1046B40018D022F04002E16984F8332005E0206A32
:1046C40000F04CFF3946B0B1A3694F1C99423A46F9
:1046D400F5D34FF0FF322946206A00F03FFF50B176
:1046E400A16911B93046A561F8BD2A46206A00F0D7
:1046F40035FF0028F6D100263046F8BD94F8333053
:1047040043F0400384F83330ECE700BF90F83330D3
:104714009A0736D5C16970B50546A1B9002421466A
:1047240007E0037803F07F03037095F830308B4281
:1047340029D3013401222846FFF7F4F9E1B2002815
:10474400EFD1002070BD5B06006A34D590F8453483
:10475400D5E902240933013ADBB244F1FF34C3F151
:10476400200CDA40203B04FA0CFC24FA03F342EA5E
:104774000C021A430023013200F0F4FD0028CDD1CD
:10478400DFE70020704700232C6A85F8313020468B
:1047940085F8333003F0DEFB0028D2D004F5047032
:1047A40003F0D8FB0028CCD0D4F840040368BDE85B
:1047B40070401B6A184700F0F1FE0028AED1C0E734
:1047C40090F83130DB0601D40020704710B5002288
:1047D40088B000230446FFF739FB08E020281BD1EA
:1047E4009DF900309DF80020002B15DB32B120220A
:1047F40069462046FFF744FA0028EFD194F8333095
:104804000822204643F0020384F8312084F8333030
:10481400FFF77CFF08B010BD002008B010BD00BF3A
:104824002DE9F0414FF0000882B04A4F0646444655
:10483400414600223046FFF775F9054630B101784C
:10484400C02969D0C1292BD0852909D096F83230E6
:10485400002043F0010386F8323002B0BDE8F08155
:1048640096F8313003F0370383803B6883B10DF150
:1048740003020DF1060101A89847BDF80630AB818B
:104884002B82BDF80430EB816B829DF803306B758D
:10489400326A92F8103243F0010382F81032297818
:1048A400A1F185000022B0FA80F0400901E0042261
:1048B400A95CE303012A02F1010243EA540311FA59
:1048C40083F39CB201D10028F1D11F2AF0D908F159
:1048D400010896F830305FFA88F18B42A9D20122A0
:1048E40006F12401306A00F0B9FD0028AED0356A23
:1048F4004480284603F02EFB0028A7D005F5047059
:1049040003F028FB0028A1D0D5F8400403681B6AF3
:1049140098470028A1D199E796F8333013F0400F57
:10492400437814BF43F0020303F0FD034370D6E958
:104934000401D6E90732C5E90201D6E902016B6137
:10494400C5E9060192F8103243F0010382F81032EF
:104954002978A5E7C82A002038B590F8313043B348
:1049640090F93320044690F83330002A0CDB056AB2
:10497400284603F0EFFA78B994F83230002043F077
:10498400010384F8323038BD03F07F0380F83330FC
:10499400BDE83840FFF744BF05F5047003F0DAFAC8
:1049A4000028E9D0D5F8400403681B6A984700281A
:1049B400E2D0012038BD00BF70B590F83130054613
:1049C4005A064CD480682B6AD3F83C341844B0F1AE
:1049D400806F01D3002070BD2846FFF74DFE0028EC
:1049E400F8D0286A0024AE6990F84534023E9E400F
:1049F400D0F82C341E443119052200F5047001341A
:104A040003F0D4FA4FF4007200210028E2D00AF037
:104A1400B3FE286A012390F8452493409C42EAD3CC
:104A240095F831305B0615D495F8332062F07F0297
:104A3400D5E9023185F83320D0F83C249B1841F1A4
:104A44000000AB60D5E90431E8609B1841F1000136
:104A5400C5E904312846BDE87040FFF77DBF006A10
:104A640000F0A2FEAFE700BF70B5044690F8310035
:104A74009CB0002310F0180F0C931A9303D0206AF3
:104A84000B6A984202D000201CB070BD40F601238E
:104A94006846FFF71DFC0028F5D0A44604F1300653
:104AA4000EADDCF800000CF1100C5CF80C1CAE46EA
:104AB4005CF8082C10355CF8043CB445AEE80F00F3
:104AC400EFD1DCF8000009AA04F1240328609DF862
:104AD400305007CA83E8070094F83330204684F83E
:104AE400305063F07F0384F83330FFF735FF00283C
:104AF400C9D00021022208230EA815918DF86B203D
:104B04008DF86930FFF702FEBEE700BF38B591F8B3
:104B1400313013F0500F02D10025284638BD40F63D
:104B240002230446FFF708FA0028F5D01023204694
:104B340084F83130FFF740FF05460028ECD0A16926
:104B4400002200232046E161FFF780F9C12294F896
:104B5400313084F83320002BDFD04123204684F801
:104B64003330BDE83840FFF75BBE00BFF0B5002529
:104B740097B01F4690F831300192ADF81450149557
:104B8400002B46D191F831300E4613F0500F40D02F
:104B94001378044611462F2B3ED001AB02AA2046BF
:104BA400FFF720F8002834D0019B1B78002B41D05C
:104BB400002302AA31462046FFF7BEF930B947B3B5
:104BC40002AA31462046FFF7A1FF10B3A44608AD60
:104BD40004F13006DCF800000CF1100C5CF80C1C3D
:104BE400AE465CF8082C10355CF8043CB445AEE8DD
:104BF4000F00EFD1DCF8000008AE28602046FEF775
:104C0400AFFF019901AB02AA2046FEF7EBFF002893
:104C1400CAD1002017B0F0BD013101910B782F2BC0
:104C2400FAD0316A08A8FEF7C9FF0028F1D001992B
:104C340008AEB2E702AA31462046FFF767FF17B075
:104C4400F0BD00BF2DE9F04F0E4690F8311083B04F
:104C540009079DF830B09DF834909DF838809DF890
:104C64003C7040F18580A2F2BC7294B27F2C7FD854
:104C74005A1E0B2A7CD80BF1FF321E2A78D8B8F1C1
:104C84003B0F98BFB9F1170F8CBF4FF0010A4FF0DB
:104C9400000A3B2F88BF4AF0010ABAF1000F67D11E
:104CA40005460193FFF758FE002861D0019B514649
:104CB4004BEA431B7B0817F001074BEA4424D34615
:104CC40043EA481818BF6427A4B248EAC92806F082
:104CD40001091FFA88F800222846FEF723FF00285E
:104CE40046D090F800C0BCF1850F45D00CF14003CC
:104CF400DBB2012B3CD8ACF185010023B1FA81F180
:104D0400490902E0042310F803C04FEACB32012B17
:104D140003F1010342EA5B021CFA82F21FFA82FBEE
:104D240001D10029EED11F2BEDD90AF1010A95F822
:104D340030305FFA8AF18B42CDD2012205F1240191
:104D4400286A00F08BFB98B12C6AA0F802B02046C8
:104D540003F000F960B104F5047003F0FBF838B116
:104D6400D4F8400403681B6A03B0BDE8F04F184749
:104D7400002003B0BDE8F08F95F831302A6A03F0C3
:104D84003703838092F8103243F0010382F8103223
:104D9400B9F1000F02D0A0F810804482B20703D505
:104DA4000775A0F808804481730703D54775A0F8F8
:104DB4000C80C48190F800C09DE700BF90F83330A8
:104DC4009A0762D570B5C56982B00446A5B313F0DD
:104DD400400634D0006AA26890F845C4013AE168FC
:104DE4000CF1090C41F1FF315FFA8CFCCCF1200E7F
:104DF40022FA0CF2ACF1200C01FA0EFE21FA0CFCA2
:104E0400A16942EA0E0242EA0C02013219B3013DE1
:104E14006D1A01312A44019172BB63F07F0320466D
:104E240094ED007B84F8333084ED027B84ED047BC5
:104E3400FFF792FD02B070BD012002B070BD816920
:104E440061B90195C1612946206A00F0A7FBC8B188
:104E540094F83330E1E70195E161DDE701AA006AE6
:104E6400019600F059FB00280CDB10D1019D002DA8
:104E7400E9D194F83330D0E70023019900F072FAB5
:104E84000028E5D1002002B070BD002070474FF02B
:104E9400FF32A169206A00F061FB0028E6D1F1E746
:104EA4002DE9F04390F8333083B004469D0740F178
:104EB400A18091461A070E4600F19580B9F1000FC2
:104EC40000F0288123684D46206AA169D0F838246F
:104ED40002EA0308C8F30807B8F1000F40F0948011
:104EE400002900F0D48094F833305B0640F1EC8064
:104EF40090F845C4D4E902320CF1090C013B5FFA85
:104F04008CFC42F1FF32CCF1200E23FA0CF3ACF10D
:104F1400200C02FA0EFE22FA0CFCE26943EA0E03AC
:104F240043EA0C031344994280F0D5800131A16116
:104F340090F845240239D0F82C3491401944B5F541
:104F4400007FC0F08A80B5F5806FC0F0A680012391
:104F540093406A0AA3EB0803934228BF1346D0F890
:104F64001C228A424FEA432809D35F18BA4206D268
:104F7400002280F810224FF0FF32C0F81C22D0F833
:104F8400140232460768BF6AB84798B3434646449A
:104F9400A5EB0805D4E90072D4E90401DB1942F158
:104FA400000298429141C4E9003207D294F83310C8
:104FB40061F07F01C4E9043284F83310002D83D1F9
:104FC400D4E9020198429141C0F09680534B1B688A
:104FD400002B00F09D8094F83330484663F07F0343
:104FE40084F833300DE0D0E90423FEF72FFF0028C6
:104FF4007FF464AF94F83230002043F0010384F866
:10500400323003B0BDE8F08390F8452402394FEA0A
:105014005828D0F82C34914041441944002F8ED0A4
:10502400C7F50078012200F50470A84528BFA846FA
:1050340002F0BCFF0028DDD03844474442463146E4
:1050440004F088FCB7F5007F206A9FD100F5047056
:1050540002F080FF002899D1CCE76268636900926E
:105064000193226923689342DDE900239A4112D215
:10507400012200F5047002F099FF0028BAD02A46F4
:1050840031463844A84604F065FC2B467FE7E169C5
:1050940049B3A1614CE70522EBE7D0F81C328B42FF
:1050A40006D1002380F810324FF0FF33C0F81C32D1
:1050B400D0F81402324603685B6A9847002899D0F6
:1050C4004FF40073984662E704F1180200F024FAE2
:1050D40000288FDB04D12046FFF7CEFA002889D0C0
:1050E400A169206A24E72046FFF7C6FA002881D088
:1050F400A169206AE1611BE794F833104846C4E9CA
:10510400023261F07F0384F8333003B0BDE8F083EA
:10511400484676E7D4E9003252E700BFC82A0020A7
:105124002DE9F0410C46154601F11E08AB892846CD
:1051340034F8027F1BB9D5E901239A420ED002F05C
:10514400D9FF03F09BF80646384603F097F88642E9
:1051540009D14445EAD10120BDE8F081B7FA87F0CE
:105164004009BDE8F0810020BDE8F0812DE9F04F51
:1051740090F8313083B08846002B4FD090F830300F
:105184000746012B53D9013A0B464FF0020A00247B
:105194008E18DFF8A0B00022514638460193FEF77E
:1051A400C1FC00283AD00278C12A37D1054600F163
:1051B4001E09019B35F8020F24B300F5105292B278
:1051C400B2F5806F2AD20BEA8424C0F3090020438D
:1051D40000F580301946324602F0B2FF0346E8B1CA
:1051E40000244D45E6D10AF1010A97F830205FFA10
:1051F4008AFA5245CFD2A3EB08009846002388F8D8
:1052040000300FE000F5205292B2B2F5006F02D3E5
:105214000028DFD1EFE7B2F5806F06D300231846EC
:1052240088F8003003B0BDE8F08F0446D9E70020C9
:10523400E4E700BF00FC0F0070B50C4600234FF6F6
:10524400FF75226819461E46A3812361626017E038
:1052540002F050FFA84222D003F010F82369F203B1
:10526400A189013342EA5602060A236152FA80F008
:1052740083B2C0F34E0040EAC33016FA80F086B21F
:1052840020460029E4D1D4E901239A42E0D12069DF
:10529400A6820138FE288CBF0020012070BD0020AA
:1052A40070BD00BF2DE9F84F07468A469146002994
:1052B40042D0A1F10208D7F83034434542D908F06E
:1052C40007030125C8F3C80B9D40EDB2464644468A
:1052D400D7F82C140022384601EB143102F066FE94
:1052E400E8B10BF1FF3B834400F2FF101BF8011FF0
:1052F4000AE04A452BD0A04510D0D7F83054A54237
:1053040014D913F0FF050CD0013429424FEA4503A8
:10531400A4EB0602EDD0A0452646EED10120BDE85F
:10532400F88F58454FF00105E0D101E000263446DE
:1053340001254FF0000BCBE7D0F82084D7F83034A8
:105344004345BCD84FF000080125C346BEE7BAF177
:10535400000F04D1B9F1010F08BFC7F82064B01CD5
:10536400BDE8F88F2DE9F8438046881E15461E4691
:105374008318D8F83024934237D8CEBBD8F82034D9
:10538400834288BFC8F8200400F007030124D8F83A
:105394002C74C0F3C8099C4007EB1031E4B201221D
:1053A40040468F1802F002FEF8B109F1FF3E864430
:1053B40000F2FF101EF801CF1CEA040F8CEA040C63
:1053C4004FEA440414BF01220022B2420DD0013D31
:1053D4008EF800C018D014F0FF04EDD17045A1463A
:1053E4004FF00104E6D13946D9E70020BDE8F8833F
:1053F400D8F820148B42C7D98142C5D3934228BF21
:105404000023C8F82034BFE70120BDE8F88300BFBB
:10541400F8B5D0F8303401338B4201D20020F8BD06
:1054240007460C4600F50476002505E0D7F830342D
:1054340001350133A342F1D3D7F8241400223046B6
:1054440001EBD41102F0B2FDA4000028E6D0C4F3AD
:1054540008040459631CE9D1681CF8BD38B50C462E
:105464000B6890F845C400F50470D0F82812023B8C
:10547400656803FA0CF3294003EB5123D0F81C129E
:10548400194402F093FD18B16368C3F30803184488
:1054940038BD00BF2DE9F8430C46D0F838344968CC
:1054A4000B4011446160134490F8451401F1090262
:1054B400D2B2D3402BB380465D1E00F5047905E0DB
:1054C4002368013D03F1010323601AD3267A002ED9
:1054D400F6D1D8F8303432462768484601339F4223
:1054E40012D8D8F8241401EBD71102F05FFDBF00E5
:1054F40050B1C7F30807C3595A1C09D0013D2360B2
:10550400E4D20120BDE8F8834FF0FF30BDE8F88312
:105514003046BDE8F88300BF38B5D0F830340133E5
:105524008B4202D24FF0FF3038BD0C46D0F8241421
:10553400154600F50470002201EBD41102F036FD8B
:105544000028EFD0A400C4F3080403595A1C02D065
:1055540001202B6038BD002038BD00BF01291BD9B4
:1055640038B5D0F830340C4601338B4201D20020D8
:1055740038BDD0F82414154600F50470012201EB5F
:10558400D41102F013FD03460028F0D0A40001203A
:10559400C4F308041D5138BD00207047D0F83034DE
:1055A4000133994201D9002070472DE9F04F054697
:1055B40083B00C4600F504790F464FF00008D5F887
:1055C4002414002248464FEAD41B01EBD41102F004
:1055D400EDFC90B1A300C3F30803C2580193531C1C
:1055E40016BF16464FF0000A4FF0010A012C04D9E9
:1055F400D5F830240132944203D9002003B0BDE829
:10560400F08FD5F8241401224846594402F0CEFC08
:105614000028F2D0019B40F80380BAF1000F12D0A9
:105624000134B44208D00023E21B39462846FFF770
:1056340099FE0028E1D03746D5F830340133B3421F
:10564400DBD33446BBE7621C534639462846D21B9B
:1056540003B0BDE8F04FFFF785BE00BF2DE9F84366
:1056640000250646D0F82C1400F504782C460022B8
:1056740040464F1C02F09AFCA8B100F1FF3E04F52D
:105684008059D6F8300405E079B90834844209D247
:105694004C4516D01EF8011FFF29F5D108340835F2
:1056A4008442F5D3401BBDE8F88308220123194244
:1056B4004FEA430C18BF0135013A5FFA8CF3F6D177
:1056C400E3E73946D3E700BFF8B500234FF0FF36D0
:1056D40000F504771546C0F84014044641601A46A4
:1056E400C0F81412194680F844340370C66080F878
:1056F4001032C0F81C62384602F058FC042D0DD854
:10570400064658B1BDB16B1E00EB031393F8BE21DE
:1057140012F07F0202D193F8C2310BB90020F8BD18
:1057240000EB05163846D6F8B651294602F03EFC81
:1057340006460028F2D005221A49F01C0AF06EF839
:105744000028EBD196F86C30092BE7D1336D014674
:105754002B44C4F82434736DC4F82834B36D2B443B
:105764000125C4F82C34F36DC4F83034336EC4F816
:10577400343496F86D20C4F82004204602F109035D
:1057840084F8452405FA03F35A1EC4F83C34C4F8DB
:1057940038242A46FFF786FD4023284684F84434FB
:1057A400F8BD00BF2809002010B50446D0F8341411
:1057B400FFF72EFE94F845340933DBB2984010BD50
:1057C40070B590F9023082B00446002B0DDBA56859
:1057D40005F1280002F0BEFB00283BD163780020CD
:1057E40043F00103637002B070BD80680122A169B7
:1057F400283002F0DBFB0028F0D0A58805F00F0567
:105804006B0100EB4515C35CE52BE7D023781B0740
:1058140001D5E369EB61236A15491A0C6B830E68A1
:10582400AA8266B10DF103020DF1060101A8B04789
:10583400BDF80430BDF806202B836B82EA82A3787E
:10584400A56803F07F0305F12800A37002F082FB32
:105854000028C3D005F50E7002F07CFB0028BDD0F3
:10586400286803681B6A98470028B7D0BBE700BFC5
:10587400C82A0020024638B552F8105F04468068F2
:10588400294601F089FF50B155B123690135AB4276
:10589400A37818BF03F0BF0363F07F03A37038BD80
:1058A400A37843F04003F7E7F8B5047814F0200434
:1058B40004D11A4B054642699A4202D3002738465E
:1058C400F8BDFFF7D7FF07460028F7D0A8682E6970
:1058D4008279023E416996400E440179A9B121467C
:1058E40006E009F049FFA868E1B202798A420BD9BF
:1058F400314405222830013402F058FB4FF4007281
:1059040000210028EDD1D9E782794FF40073696949
:105914003846934011FA83F36B61F8BD00FE1F0013
:1059240010B5044680680A462830A16902F03EFB9F
:1059340020B1A38803F00F0300EB431010BD00BF98
:1059440010B5037804462BB1FFF73AFF0023237008
:10595400A37010BD002301202370A37010BD00BFED
:1059640038B5037805460C4613B1FFF729FFF0B1AB
:10597400A8680022A969283002F018FBB8B1AA88E7
:1059840002F00F0200EB421352015D6880589968DF
:10599400DA6820606560A160E26018695D699969F0
:1059A400DA69206101206561A161E26138BD0020EE
:1059B40038BD00BF30B589B00D4614466946FFF7BF
:1059C400CFFF28B1BDF81020BDF80E302A80238007
:1059D40009B030BD30B589B00D4614466946FFF7AD
:1059E400BFFF28B1BDF81820BDF816302A802380E7
:1059F40009B030BD0B7813F0700F01D1002070474F
:105A0400F0B540F6022389B00D46044601F0F0F8E3
:105A140038B1012210232046A2702370FFF744FFFF
:105A240010B9002009B0F0BD2269237822626BB15D
:105A3400636933B1A378002223F02003C4E904226C
:105A4400A3702046FFF7BCFE0028EAD0A06801221C
:105A5400A169283002F0AAFA0028E2D0B4F804C000
:105A640010220CF00F0C4FEA4C1300EB4C1C8CF87A
:105A74000B20C058A768236A97F806E09E1EDCF83E
:105A84000410DCF80820DCF80C3006FA0EF6EE46BA
:105A9400AEE80F00DCF81000DCF81410DCF8182075
:105AA400DCF81C30AEE80F007B6907F12800012206
:105AB400F1184FF02033CDF80130CDF80530ADF8B2
:105AC400093002F073FA84460028AAD02E27EE4645
:105AD4008DF800707646BEE80F00CCF80000CCF8D4
:105AE4000410CCF80820CCF80C308DF80170BEE816
:105AF4000F00CCF81000CCF81410CCF81820CCF817
:105B04001C302B6A1A0CADF81A30ADF814200FCEE5
:105B1400CCF82000CCF82410CCF82820CCF82C3079
:105B24000FCECCF83000CCF83410CCF83820CCF8B8
:105B34003C30A46804F1280002F00CFA00283FF479
:105B440070AF04F50E7002F005FA00283FF469AF57
:105B5400206803681B6A09B0BDE8F040184700BF1D
:105B64002DE9F041002694B0984603780192ADF8EF
:105B740014600B96002B41D10B780D4613F0700F77
:105B84003CD01378044616462F2B3BD0002728E040
:105B9400019E3678002E50D001F02AF8034602AA5E
:105BA400294620462BB9B8F1000F27D0FFF722FF72
:105BB40020B3A6460DF12C0CBEE80F00ACE80F0094
:105BC400BEE80F00ACE80F00DEF800502046237852
:105BD400CCF800500BB1FFF7F3FD019E0BAD27701D
:105BE400A770314601AB02AA204601F04DF90646E2
:105BF40002AA294600232046002EC9D1002014B051
:105C0400BDE8F0810136019633782F2BFAD0AD68C8
:105C1400242200210BA809F0AFFD0D95EB79102B80
:105C240003D0202B0FD00C2BE8D120238DF82C305F
:105C340001230BAD8DF82E30A8E702AAFFF7DAFE98
:105C440014B0BDE8F0814023F0E700BF2DE9F04136
:105C5400002594B09846037801920295ADF8385027
:105C6400002B37D10B780E4613F0700F32D0137817
:105C7400044615462F2B31D000271EE0019D2D78B8
:105C8400002D40D000F0B4FFA6460DF1080C08B377
:105C940066462578BEE80F00ACE80F00BEE80F00AA
:105CA400ACE80F00DEF800302046CCF800300DB12F
:105CB400FFF786FD019D2770A770294601AB0BAA4B
:105CC400204601F0E1F805460BAA314600232046A0
:105CD400002DD3D1002014B0BDE8F0810135019529
:105CE40029782F29FAD0A9B9B5682422204609F0C9
:105CF40043FDA560EB79102B03D0202B22D00C2B75
:105D0400E8D120221FE043460BAA00F071FF14B033
:105D1400BDE8F081B6682422002102A809F02CFD18
:105D24000496F379102B03D0202B03D00C2BD1D164
:105D3400202300E040238DF80830012302AE8DF8C3
:105D44000A3099E74022012322701846A370C2E763
:105D540019B101F58961FFF779BF0846704700BFA3
:105D6400CB6870B50D46044693B906780EB1184653
:105D740070BD8D682422314609F0FEFCA560EB79E4
:105D8400102B18D0202B10D00C2B14D0304670BD03
:105D94002422002109F0F0FC01201023A0702370BC
:105DA400D5E90223A260236270BD40220123227040
:105DB4001846A37070BD2022F8E700BF70B50578BF
:105DC4000DB1002070BD0E4604462422294609F078
:105DD400D3FCA660F379102B0BD0202B03D00C2B13
:105DE40007D0284670BD4022012322701846A370B4
:105DF40070BD2022F8E700BF2DE9F04F2DED028B96
:105E0400837883B00546DF0740F18C8088460178AB
:105E140092460E0700F191808C0608D583685A8952
:105E24004369C3EB42139BB29A4528BF9A46BAF121
:105E3400000F00F0AF806A6905F11003880656462A
:105E44004FF0000908EE103AAF68C2F3080B3DD5D5
:105E5400396A01EB5221BBF1000F51D1B6F5007F35
:105E64004ED37A6B91424BD0B6F5806FC0F08280EE
:105E74002878730A800605D43879A0EB0900834298
:105E840028BF034691424FEA43240CD8C8188242E3
:105E940009D207F12800CDE9001302F05BF8DDE92F
:105EA400001300283ED0F86A026857694246B84792
:105EB400002837D06A69361BA04422446A6169D03D
:105EC4002978C2F3080BAF688806C1D497F8059007
:105ED40009EA5229BBF1000F36D1B9F1000F33D1D1
:105EE400002A33D14A064CBF3A6A2A6A2A61023A26
:105EF400B8797969824049441144BBF1000FADD0AF
:105F0400CBF50074002207F12800B44228BF3446C0
:105F140002F04CF830B100EB0B012246404603F08E
:105F240019FDC7E76B784FF0FF3043F002036B7045
:105F340003B0BDEC028BBDE8F08FC36942699B1AC4
:105F44009A4528BF9A4672E72A69D0E70B0705D518
:105F5400AA78540602D52A690132C7E718EE102A36
:105F64003846296901F066FC0028DBDB0CD0AF68F9
:105F74002A69BCE7F86A424603681B699847002807
:105F8400D0D04FF4007495E72B7813F0700FC9D07C
:105F9400AAEB060A504603B0BDEC028BBDE8F08FB5
:105FA40070B582B0012204460DF10701D0E9045610
:105FB400FFF722FF01280CBF9DF807004FF0FF30C8
:105FC400C4E9045602B070BD436913F4F07F30B5E0
:105FD400044683B0C3F3431509D0012907D1203304
:105FE4004361A068383000EB451003B030BD012296
:105FF4000DF107012046FFF7FFFE40B2012803D14F
:1060040063691F336361ECE70020EEE72DE9F0419B
:1060140003789AB0002613F0180F0896119606D04C
:10602400174683688A6804460D469A4203D00020C6
:106034001AB0BDE8F081FFF7C3FBA6460DF1440C8E
:10604400BEE80F00ACE80F00BEE80F00ACE80F009C
:10605400DEF800303246A169CCF80030A36803F1C1
:10606400280001F0A3FF0028E1D0A288EC4694F8B0
:10607400008002F00F0200EB421E5201DEF8041011
:106084008058DEF80C30DEF80820ACE80F00DEF8AB
:106094001410DEF81820DEF81C30DEF81000ACE82E
:1060A4000F0018F008033A46294640F09B8008A8E0
:1060B400FFF756FD0028BAD0109EBDF82430002505
:1060C4000E990122A3809DF82330A068E3700B9BF6
:1060D4002830A161E3608DF820508DF8225001F042
:1060E40065FF0028A3D0A38803F00F0300EB43103F
:1060F400DDF80D30C0F80D30DDF81130C0F8113086
:10610400DDF81530C0F81530DDF81930C0F8193055
:10611400BDF81D30A0F81D309DF81F30C3779DF8E1
:106124000B30C372002E3BD0A068B31E2A4681797F
:1061340028308B4050F8141C194401F037FF0546F1
:1061440000283FF474AF006A6F46696AAA6AEB6A72
:106154000FC7286B696BAA6BEB6B0FC73146A0683E
:1061640001F08AFB00283FF462AFA068236A8279B9
:106174002830023B50F8141C93400122194401F0CA
:1061840015FF064600283FF452AF6D460FCD30622E
:106194007162B262F3620FCD30637163B263F36311
:1061A40000210222082311A819918DF846208DF8A8
:1061B400443000F0D3FE00283FF439AFA46804F162
:1061C400280001F0C7FE00283FF431AF04F50E703B
:1061D40001F0C0FE00283FF42AAF206803681B6A60
:1061E400984725E740F601236046FFF72FFD002876
:1061F4007FF463AF1BE700BF0378DA0601D4002005
:106204007047436930B5044683B033B183780022C4
:1062140023F02003C0E90422837000230FE06361AC
:10622400A3686A0138339A5C03EB4513EAB1E52AA3
:1062340004D02E2A02D0DB7A1B0722D5636913F41B
:10624400F07FC3F3431503F12003E8D101220DF1DC
:1062540007012046FFF7D0FD40B2012803D163694E
:106264001F336361DCE763785BB9A37808222046B7
:1062740043F002032270A37003B0BDE8304000F085
:106284006DBE002003B030BD2DE9F0410378044613
:106294000769002B39D00D464169A94242D0002D2F
:1062A40037D018072AD5E269AA422ED3D4F808C0F9
:1062B4006E1EA2789CF8060012F0400F00F109004F
:1062C400C0B226FA00F630D14A1EC24009B1964245
:1062D4002FD25B064CBFDCF82030236A236104F123
:1062E400100806E02169013EA06801F0A3FA002825
:1062F4000BDD4246002EF5D1A2780CE09A06D5D5E6
:10630400A3685B89B5EB431FF6D900202761BDE87C
:10631400F0818278056122F0200201206561A2707B
:10632400BDE8F0810120BDE8F081236A3344236194
:10633400F1E7B61AD3E700BF2DE9F0410E46154642
:1063440000212422044698469DF8187009F014FA96
:10635400B068336A00F13802A58005F00F0502EB3E
:106364004512C4E90203D17A0B0711D401F01701D5
:106374002170D37A13F0180F02D141F00801217073
:1063840008F00303E770012B38D0022B06D0F3B1D9
:10639400002318462370A370BDE8F08103232178FD
:1063A400CD06F5D4CE07F3D408F0080118F4806FB5
:1063B40043EA0103A370416B958AA161518B41EAC1
:1063C400054112D019BB63F07F03A37010E018F4E9
:1063D400806FDDD108F0080343F00103A370416B23
:1063E400938AA161518B41EA03412162D369E3613C
:1063F40018F4804F04D10120BDE8F0810223CEE7D8
:10640400E1692046FFF740FF0028F4D1C0E701F01E
:1064140033FA0028BCD0A378D5E700BF0378002B5B
:1064240045D12DE9F0470B7884B00C4613F0700F7A
:1064340030D04B6913F01F052CD106469046A9466F
:1064440001220DF10F012046C3F3431A5F09FFF740
:10645400D3FC40B24FEA4A1201281BD16369A168F8
:106464001F3301F1380C63611CF802200CEB4A1C49
:1064740082B12E2A12D0A2F1E500B0FA80F04009D0
:1064840060B99CF80B1011F0080E12D00F2907D038
:106494000546D5E7002004B0BDE8F0870025CFE726
:1064A4005106CDD502F01F059CF80D90C8E70020D9
:1064B400704785B10CF10A0101E01CF8012F4FEA85
:1064C400CE13614543EA5E0352FA83F35FFA83FE17
:1064D400F3D1CE45DED14346BAB2214630460095CB
:1064E400FFF72AFFD7E700BF03780BB1FFF768B9BE
:1064F400012070472DE9F0470E46017882B0090764
:106504009DF828709DF82C909DF830A09DF834805B
:1065140018D5A2F2BC7294B27F2C13D85A1E0193E0
:106524000B2A0FD87A1E1E2A0CD8BAF13B0F98BF3B
:10653400B9F1170F06D8B8F13B0F03D80546FFF79A
:106544003FF918B9002002B0BDE8F087A86801221D
:10655400A969283001F02AFD0028F3D0019B4FEAF5
:106564005802A98847EA4313F70701F00F0142EAEA
:106574004A1243EA442300EB41109BB242EAC92287
:1065840048BF4382B40792B208D518F001080382C9
:10659400C28118BF4FF0640880F80D80710701D5DF
:1065A4000383C282AC6804F1280001F0D3FC002804
:1065B400C8D004F50E7001F0CDFC0028C2D02068CC
:1065C40003681B6A02B0BDE8F047184783789B074D
:1065D40027D5036A10B5044682B0ABB1016911BB7B
:1065E400019301621946A06801F046F9B0B1A3789D
:1065F400616963F07F032278E161A37022B12046D0
:10660400FFF7DEF802B010BD012002B010BD6FF03C
:1066140070422169A06801F01FF968B9002002B036
:1066240010BD00207047002301AA8068019301F087
:1066340001F90028F2DBEAD1019B002BD7D0D1E786
:106644002DE9F047837805469C0777D588461907D6
:10665400914600F1B5806B6913EB09026ED2B9F172
:10666400000F40D04F464FF0000AA868C3F3080655
:106674002969447914EA53243FD1002E3DD10029DD
:106684006ED0AA78520676D5EA699A4273D9013156
:10669400296102398279436991401944B7F5007F31
:1066A40053D3B7F5806F70D303797A0A1B1B9342D7
:1066B40028BF1346426B8A424FEA432407D35E182D
:1066C400B24204D24FF0FF3280F828A04263C06A7D
:1066D40042460668B66AB04780B36B693F1BA04464
:1066E40023446B61C1D1EA699A4276D2AA784846BA
:1066F400EB6162F07F03AB7025E082790239436974
:10670400914019442144002EC8D0C6F500740122DA
:10671400BC4228BF3C46283001F048FC70B13044EC
:1067240026442246414603F015F9B6F5007FA868D1
:10673400D3D1283001F00EFC0028CED16B78002094
:1067440043F001036B70BDE8F087C6F500746A6915
:10675400EB69BC4228BF3C469A4205D30522DAE7DE
:10676400296A21B3296194E7AB7813F0200F14BF91
:1067740005220122CFE705F1100201F05BF80028A1
:10678400DCDB24D0A868296983E7436B8B4204D1FE
:106794004FF0FF3380F828A04363C06A4246036881
:1067A4005B6A98470028C9D04FF4007495E72846DF
:1067B400FFF760F80028C1D02969A868296268E752
:1067C400C169FFF761FD00287FF445AFB6E72846AD
:1067D400FFF750F80028D5D1B0E7054B1B682BB163
:1067E400AB78484663F07F03AB70ACE74846AAE752
:1067F400C82A00202DE9F04F84468DB01446156850
:1068040098460646894603AF01934FF0000EBCE854
:106814000F000FC7BCE80F000FC7DCF8003065603D
:106824003B604346A4F80CE0002B3FD04FF0010A34
:10683400A9EB0A0103A889B24901FFF725FD50B36A
:10684400002103A8FFF7C0FB074620B300250DE095
:1068540001F050FC8046584601F010FD8346404646
:1068640001F00CFD834516D10D2D18D0EAB239463E
:106874003046013500F0A8FCA38983462046002B4E
:10688400E6D1D4E901329342E2D1BBFA8BF040095C
:106894000DB0BDE8F08F00200DB0BDE8F08F0AF117
:1068A400010A019B5FFA8AFA5345C1D20120EFE73E
:1068B4002DE9F04F07468DB016469A460DF10C0CA3
:1068C40002F1150402F1200501914FF000090FCFE8
:1068D400ACE80F000FCFACE80F003B68CCF80030F9
:1068E4004FEAC91314F8012F43EA5903A54252FA97
:1068F40083F35FFA83F9F3D133684FF000087360D0
:10690400A6F80C80BAF1000F4ED00127019B03A812
:10691400D91B89B24901FFF7B7FC002855D00021E3
:1069240003A8FFF751FB00284FD0059A574500F103
:10693400010B4FF0010492F828304FF0000543F0AA
:10694400010382F828304FF00F030CBF47F04002D8
:106954003A46C3724FF00003027003734FF0000312
:1069640080F80D90438306E0ABF800000134013554
:106974000BF1020BE4B2B08918B9D6E901239A42AB
:1069840016D0304601F0B6FB042DEBB2ECD90A2B3D
:1069940002D8ABF80300E9E70D2CABF80500E5D10C
:1069A4000137FFB2BA45B1D201200DB0BDE8F08F76
:1069B400B8F1000F06D008F101084FF6FF705FFA36
:1069C40088F8E1E74FF00108DEE700200DB0BDE8EC
:1069D400F08F00BF02464FF0203152F8163B2DE9EC
:1069E400F043C0F81610864684685160C2F8071058
:1069F4001A782E2A14BF0120002003D113F8012F86
:106A04002E2AFBD0611E99420BD90A4602E093421A
:106A1400114606D01146013A91F800C0BCF12E0F80
:106A2400F5D19C424FF0000540F2868007260827E6
:106A3400A946A84606E001330A264FF008091027A4
:106A44009C425BD91A782E2A08BF9942F3D0222A95
:106A54000DD07C2A0BD0A2F15B0CBCF1020F06D93D
:106A6400A2F12A0CBCF1050F21D82D2A1FD002F067
:106A7400C002802A5DD04E452FD299422CBF0020FF
:106A840001200A2E08BF40F00100002847D09EF8DC
:106A94001630202B40D09EF8143001207E21312264
:106AA40073448EF815009975DA75BDE8F083A2F188
:106AB4003A0CBCF1050FDAD9A2F1210CBCF15D0F3F
:106AC400D5D84E45D9D3A2F1610CBCF1190F28D801
:106AD400203A3D43D2B2EDB201E000205F2209F139
:106AE400010CF144013389F816205FFA8CF2062A6E
:106AF400914698BF8EF814209C42A3D89EF8163075
:106B0400202B09D00028C6D018EA050F18BF02258B
:106B14008EF81550BDE8F0830020BDE8F0830B46E5
:106B24008EE7A2F1410CBCF1190F98BF47EA08089F
:106B3400D5E70133002083E7A846DFE72DE9F84FC6
:106B44004FF0620900250F460446DFF8A0B04FF06D
:106B54007E0A91F8148001F11606B8F1030FDBF8F0
:106B6400003028BF4FF003082B449DB208F1040302
:106B7400DBB205F00F02581E2D09092A02F1370174
:106B840098BF02F13001FA18C3B291759845F0D15B
:106B940007EB08030021204683F816A0FFF774FBD7
:106BA40001212046FFF710FA03460B2230469BB121
:106BB40093F800C01946BCF1000F13D0DB7A1B0711
:106BC400EED408F02DFD0028EAD109F1FF3919F0BF
:106BD400FF09C2D1484603E06078B0FA80F040096A
:106BE400BDE8F88F0120BDE8F88F00BFA032002077
:106BF4002DE9F04F2DED028B8BB0CDE902038B68AC
:106C040007930B7813F0700F53D0029B1B78002B63
:106C14004FD1136990469A4A0E460C33A2FB0323C4
:106C2400C3F3870298F815309807049200F0A78000
:106C3400571CFFB20023304619461C460693FFF743
